S01500006C756D696572654761726167652E73726563D5
S113000055C000006EC000006CC000006AC0000053
S113001068C0000066C0000064C0000062C0000048
S113002060C000005EC000005CC000005AC0000058
S113003058C0000056C0000054C0000052C0000068
S113004050C000004EC000004CC000004AC0000078
S113005048C0000047C0000044C0000042C0000087
S113006040C000003EC000003CC000003AC0000098
S113007038C0000036C0000034C0000032C00000A8
S113008030C000002EC000002CC000002AC00000B8
S113009028C0000026C0000024C0000022C00000C8
S11300A020C000001EC000001CC0000011241FBEA0
S11300B0CFEFDAE0DEBFCDBF11E0A0E0B1E0EAE8C7
S11300C0F2E002C005900D92A030B107D9F721E00B
S11300D0A0E0B1E001C01D92A830B207E1F795D0CD
S11300E0D2C08ECF1F920F920FB60F9211242F936E
S11300F08F939F93809105019091060101969093AF
S113010006018093050180910501909106018839CB
S11301109A43D8F0809105019091060188599A4339
S11301209093060180930501809103018F5F809372
S11301300301809103018A3040F0809103018A50C9
S11301408093030181E080930401809101019091E7
S113015002010196909302018093010180910101B3
S113016090910201059739F4109202011092010155
S113017081E0809300019F918F912F910F900FBE8A
S11301800F901F90189584B5826084BD85B58460F6
S113019085BDEEE6F0E080818260808389EF87BDD3
S11301A078940895E0ECF0E0808182688083E1EC4B
S11301B0F0E080818960808387EC8093D100109285
S11301C0CF0008953F9A219A2B9ADDDFEBCF089553
S11301D083B7856083BFE4E6F0E080818D68808327
S11301E0E5E6F0E0808189698083E8E6F0E08081DB
S11301F081608083EBE6F0E080818960808378947D
S1130200889583B78E7F83BF0895DCDFCFECD0E081
S113021011E0809100018823B1F0109200011B9B32
S113022002C0189B06C08881883C18F488818C5FC2
S113023088831B9B08C0189906C08881882319F0FD
S11302408881845088831B9B02C0189B09C0299A0B
S113025010930701109206011092050110920301F8
S11302601B9BD7CF1899D5CF80910401882389F29D
S113027010920401299880910701882351F2109269
S10D02800701A6DFC6CFF894FFCFF4
S9030000FC
