S0220000636170746575722D746573745F6C756D696572654761726167652E7372656388
S113000055C000006EC000006CC000006AC0000053
S113001068C0000066C0000064C0000062C0000048
S113002060C000005EC000005CC000005AC0000058
S113003058C0000056C0000054C0000052C0000068
S113004050C000004EC000004CC000004AC0000078
S113005048C0000047C0000044C0000042C0000087
S113006040C000002CC1000061C100003AC0000083
S113007038C0000036C0000034C0000032C00000A8
S113008030C000002EC000002CC000002AC00000B8
S113009028C0000026C0000024C0000022C00000C8
S11300A020C000001EC000001CC0000011241FBEA0
S11300B0CFEFDAE0DEBFCDBF11E0A0E0B1E0E6EEC5
S11300C0F9E002C005900D92A630B107D9F721E0FE
S11300D0A6E0B1E001C01D92A53AB207E1F787D0CE
S11300E080C48ECF1F920F920FB60F9211242F93BC
S11300F08F939F9380910D01882349F080910B0188
S113010090910C01019690930C0180930B018091C6
S11301100B0190910C018C349D41D8F080910B011E
S113012090910C018C549D4190930C0180930B0190
S1130130809109018F5F80930901809109018823CF
S113014041F08091090181508093090181E08093FD
S11301500A0180910701909108010196909308018A
S1130160809307018091070190910801059760F041
S1130170809107019091080105979093080180935D
S1130180070181E0809306019F918F912F910F9039
S11301900FBE0F901F90189584B5826084BD85B5FD
S11301A0846085BDEEE6F0E080818260808389EF23
S11301B087BD78940895E0ECF0E0808182688083C4
S11301C0E1ECF0E080818960808387EC8093D1004A
S11301D01092CF00089584B1846084B987B1806897
S11301E087B981E080930A01D7DFE5CF0895F3DF73
S11301F0809106018823C1F010920601189B09C062
S11302008091CF00883C28F4EFECF0E080818C5F93
S11302108083189909C08091CF00882329F0EFECDE
S1130220F0E0808184508083189B0EC085B1846087
S113023085B981E080930D0110920A0110920C019E
S113024010920B011092090118990EC080910A01B5
S1130250882351F010920A0185B18B7F85B9809172
S11302600D01811110920D0180910B0190910C01EF
S11302702CE43DE1281B390B36952795A3E1B3E81F
S1130280C9D00024880F991F001C880F991F001CD7
S1130290892F902D9F938F9380E091E09F938F936C
S11302A085E191E09F938F93C4D085E191E097D04D
S11302B00F900F900F900F900F900F9099CF1F9267
S11302C00F920FB60F9211242F933F938F939F9306
S11302D0EF93FF93809112018F5F809312018091BD
S11302E01301909114019C012F5F3F4F309314012F
S11302F0209313012091CE00FC01EB5DFE4F20837F
S113030080911301909114018034910520F0109292
S1130310140110921301FF91EF919F918F913F91DE
S11303202F910F900FBE0F901F9018951F920F9250
S11303300FB60F9211248F93EF93FF9380910E01C8
S1130340811106C0E9ECF0E080818F7D808317C0C5
S113035080910E01815080930E01E091110181E0A2
S11303608E0F80931101F0E0EB59FE4F8081809352
S1130370CE0080911101803410F010921101FF9190
S1130380EF918F910F900FBE0F901F901895909141
S11303900E01903410F590910E019F5F90930E0121
S11303A020910F0130911001A9014F5F5F4F5093CD
S11303B0100140930F01F901EB59FE4F8083403443
S11303C0510520F01092100110920F01E9ECF0E0B9
S11303D080818062808380E0089581E008950F9396
S11303E01F93CF93DF938C01C0E0D0E005C0CFDF33
S11303F081110AC0DF5FCF5FF801EC0FF11D80812E
S11304008111F5CF8D2F01C08C2FDF91CF911F91DA
S11304100F910895A29FB001B39FC001A39F700DD7
S1130420811D1124911DB29F700D811D1124911DF8
S11304300895AEE0B0E0EEE1F2E0AAC20D891E89B3
S113044086E08C831A8309838FEF9FE79E838D83D5
S1130450AE01475E5F4F6F89788DCE01019608D05B
S1130460EF81F885E00FF11F10822E96E4E0ACC214
S1130470ABE0B0E0EDE3F2E07DC26C017B018A0108
S1130480FC0117821682838181FFBFC1CE010196D0
S11304903C01F6019381F70193FD859193FF8191CE
S11304A07F01882309F4ADC1853239F493FD859128
S11304B093FF81917F01853221F4B60190E0C0D190
S11304C0E8CF912C212C312CFFE1F315D8F08B329D
S11304D079F038F4803279F08332A1F4232D20614D
S11304E01DC08D3261F0803369F4232D216016C064
S11304F0832D8260382EE32DE4603E2E2AC0F32D36
S1130500F8601DC037FC2DC020ED280F2A3040F0C4
S11305108E32B9F436FC75C1232D2064322E19C0F5
S113052036FE06C08AE0989E200D1124922E11C03A
S1130530EAE02E9E200D1124222EF32DF0623F2E90
S113054008C08C3621F4832D8068382E02C088368A
S113055041F4F70193FD859193FF81917F0181110E
S1130560B3CF982F9F7D9554933028F40C5F1F4F81
S11305709FE399830DC0833631F0833771F083355F
S113058009F055C020C0F801808189830E5F1F4F98
S113059088248394912C530112C02801F2E04F0E59
S11305A0511CF801A080B18036FE03C0692D70E0B3
S11305B002C06FEF7FEFC50138D14C018201F32DEA
S11305C0FF773F2E15C0280122E0420E511CF8018E
S11305D0A080B18036FE03C0692D70E002C06FEFC9
S11305E07FEFC50117D14C01F32DF0683F2E820136
S11305F033FC19C0822D90E088169906A0F4B60148
S113060080E290E01DD12A94F5CFF50137FC859165
S113061037FE81915F01B60190E012D121102A9436
S113062021E0821A91088114910479F7E1C084369B
S113063011F0893639F5F80137FE07C06081718100
S1130640828193810C5F1F4F08C060817181072EE6
S1130650000C880B990B0E5F1F4FF32DFF763F2E76
S113066097FF09C090958095709561957F4F8F4F46
S11306709F4FF0683F2E2AE030E0A3011DD1882E61
S1130680861844C0853731F4232D2F7EB22E2AE0FC
S113069030E025C0932D997FB92E8F36C1F018F420
S11306A0883579F0AEC0803719F0883721F0A9C0B9
S11306B0E92FE061BE2EB4FE0DC0FB2DF460BF2E09
S11306C009C034FE0AC0292F2660B22E06C028E0D5
S11306D030E005C020E130E002C020E132E0F80162
S11306E0B7FE07C060817181828193810C5F1F4FC7
S11306F006C06081718180E090E00E5F1F4FA3010E
S1130700DBD0882E8618FB2DFF773F2E36FE0DC0DA
S1130710232D2E7FA22E891458F434FE0BC032FCF4
S113072009C0832D8E7EA82E05C0B82CA32C03C02F
S1130730B82C01C0B92CA4FE0FC0FE01E80DF11DB8
S11307408081803321F49A2D997EA92E09C0A2FEBE
S113075006C0B394B39404C08A2D867809F0B39488
S1130760A3FC10C0A0FE06C0B21480F4280C922C86
S11307709B180DC0B21458F4B60180E290E060D02A
S1130780B394F8CFB21418F42B1802C0982C212C6F
S1130790A4FE0FC0B60180E390E052D0A2FE16C0C2
S11307A0A1FC03C088E790E002C088E590E0B601B0
S11307B00CC08A2D867851F0A1FE02C08BE201C0E4
S11307C080E2A7FC8DE2B60190E03AD0891430F4BF
S11307D0B60180E390E034D09A94F8CF8A94F30180
S11307E0E80DF11D8081B60190E02AD08110F6CF8A
S11307F0222009F44ECEB60180E290E021D02A9462
S1130800F7CFF6018681978102C08FEF9FEF2B9679
S1130810E2E1CCC0FC010590615070400110D8F7B2
S1130820809590958E0F9F1F0895FC016150704034
S113083001900110D8F7809590958E0F9F1F089511
S11308400F931F93CF93DF93FB01238121FD03C0FB
S11308508FEF9FEF2CC022FF16C046815781248161
S113086035814217530744F4A081B1819D012F5F64
S11308703F4F318320838C93268137812F5F3F4FF5
S11308803783268314C08B01EC01FB010084F185BE
S1130890E02D0995892BE1F6D80116968D919C914E
S11308A01797019617969C938E931697CE01DF9116
S11308B0CF911F910F910895FA01AA27283051F181
S11308C0203181F1E8946F936E7F6E5F7F4F8F4F7D
S11308D09F4FAF4FB1E03ED0B4E03CD0670F781FDC
S11308E0891F9A1FA11D680F791F8A1F911DA11DC1
S11308F06A0F711D811D911DA11D20D009F46894FA
S11309003F912AE0269F11243019305D3193DEF6A1
S1130910CF010895462F4770405D4193B3E00FD057
S1130920C9F7F6CF462F4F70405D4A3318F0495D42
S113093031FD4052419302D0A9F7EACFB4E0A69525
S11309409795879577956795BA95C9F70097610547
S1130950710508959B01AC010A2E0694579547959D
S113096037952795BA95C9F7620F731F841F951F92
S1130970A01D08952F923F924F925F926F927F92A3
S11309808F929F92AF92BF92CF92DF92EF92FF929B
S11309900F931F93CF93DF93CDB7DEB7CA1BDB0B47
S11309A00FB6F894DEBF0FBECDBF09942A883988EC
S11309B048885F846E847D848C849B84AA84B984F3
S11309C0C884DF80EE80FD800C811B81AA81B981FF
S11309D0CE0FD11D0FB6F894DEBF0FBECDBFED0113
S10909E00895F894FFCF16
S10909E625640A0D000067
S9030000FC
